:100000000C945D000C94FD020C94D6020C948500B7
:100010000C9485000C9485000C9485000C9485004C
:100020000C9485000C9485000C9485000C9485003C
:100030000C9485000C9485000C9485000C9485002C
:100040000C948C020C9485000C944A030C942403A9
:100050000C9485000C9485000C9485000C9485000C
:100060000C9485000C9485000000000024002700FB
:100070002A0000000000250028002B0004040404CE
:100080000404040402020202020203030303030342
:10009000010204081020408001020408102001021F
:1000A00004081020000000080002010000030407FB
:1000B0000000000000000000900411241FBECFEFDC
:1000C000D8E0DEBFCDBF11E0A0E0B1E0E8EDF9E09F
:1000D00002C005900D92AA31B107D9F721E0AAE13B
:1000E000B1E001C01D92A23CB207E1F710E0CDE5FE
:1000F000D0E004C02197FE010E94DF04CC35D10777
:10010000C9F70E947C030C94EA040C94000090E070
:10011000FC01EC55FF4F2491FC01E057FF4F349157
:10012000FC01E458FF4FE491EE2309F43CC0222384
:1001300039F1233091F038F42130A9F0223001F563
:1001400084B58F7D12C0273091F02830A1F0243083
:10015000B9F4809180008F7D03C0809180008F77FB
:10016000809380000DC084B58F7784BD09C08091D5
:10017000B0008F7703C08091B0008F7D8093B00076
:10018000F0E0EE0FFF1FEE58FF4FA591B4919FB71F
:10019000F894611104C08C913095382302C0EC9121
:1001A0003E2B3C939FBF0895CF93DF9390E0FC01DB
:1001B000E057FF4F2491FC01E458FF4F84918823BE
:1001C00061F190E0880F991FFC01E859FF4FC5913C
:1001D000D491FC01EE58FF4FA591B491611109C073
:1001E0009FB7F8948881209582238883EC912E23F1
:1001F0000BC0623061F49FB7F8948881322F30953C
:1002000083238883EC912E2B2C939FBF06C08FB73E
:10021000F894E8812E2B28838FBFDF91CF9108952A
:100220003FB7F8948091210190912201A091230180
:10023000B091240126B5A89B05C02F3F19F0019667
:10024000A11DB11D3FBFBA2FA92F982F8827820F5C
:10025000911DA11DB11DBC01CD0142E0660F771FAC
:10026000881F991F4A95D1F708958230E8F4E82F46
:10027000F0E0EE0FFF1FE050FF4F7183608381308D
:1002800041F0809169008C7F482B40936900E89A87
:10029000089580916900837F440F551F440F551FB7
:1002A000482B40936900E99A08950895CF92DF9210
:1002B000EF92FF920F931F93CF93DF936C017A011C
:1002C0008B01C0E0D0E0CE15DF0581F0D8016D9143
:1002D0008D01D601ED91FC910190F081E02DC601D8
:1002E0000995892B11F02196EECF7E01C701DF9190
:1002F000CF911F910F91FF90EF90DF90CF900895D5
:1003000061E08AE00E94870080911A0190911B01B0
:10031000019690931B0180931A01089560E08AE092
:100320000C948700089580E090E00895FC01538DBF
:10033000448D252F30E0842F90E0821B930B5417BF
:1003400010F0CF96089501970895FC01918D828D4C
:10035000981761F0828DDF01A80FB11D5D968C9119
:10036000928D9F5F9F73928F90E008958FEF9FEF24
:100370000895FC01918D828D981731F0828DE80FE0
:10038000F11D858D90E008958FEF9FEF0895FC019A
:10039000918D228D892F90E0805C9F4F821B910967
:1003A0008F739927089585E291E00E94C70121E0AB
:1003B000892B09F420E0822F0895FC01848DDF0150
:1003C000A80FB11DA35ABF4F2C91848D90E00196C8
:1003D0008F739927848FA689B7892C93A089B189B7
:1003E0008C91837080648C93938D848D981306C058
:1003F0000288F389E02D80818F7D80830895EF92BC
:10040000FF920F931F93CF93DF93EC0181E0888FCE
:100410009B8D8C8D981305C0E889F989808185FDB5
:1004200026C0F62E0B8D10E00F5F1F4F0F731127A4
:10043000E02E8C8DE8120CC00FB607FCFACFE889CD
:10044000F989808185FFF5CFCE010E94DD01F1CFD2
:100450008B8DFE01E80FF11DE35AFF4FF0829FB72D
:10046000F8940B8FEA89FB89808180620AC09FB76C
:10047000F894EE89FF896083E889F9898081837027
:10048000806480839FBF81E090E0DF91CF911F91D6
:100490000F91FF90EF900895CF93DF93EC01888D3B
:1004A0008823C9F0EA89FB89808185FD05C0A88978
:1004B000B9898C9186FD0FC00FB607FCF5CF8081FE
:1004C00085FFF2CFA889B9898C9185FFEDCFCE0148
:1004D0000E94DD01E7CFDF91CF91089580E090E0A9
:1004E000892B29F00E94D30181110C9400000895FA
:1004F000009769F0FC0101900020E9F73197AF0106
:10050000481B590BBC0185E291E00C94560180E038
:1005100090E008950E94E5041F920F920FB60F928B
:1005200011242F933F938F939F93AF93BF93809109
:100530001D0190911E01A0911F01B09120013091E9
:100540001C0123E0230F2D3720F40196A11DB11DBE
:1005500005C026E8230F0296A11DB11D20931C01A2
:1005600080931D0190931E01A0931F01B093200161
:100570008091210190912201A0912301B091240149
:100580000196A11DB11D8093210190932201A0939A
:100590002301B0932401BF91AF919F918F913F911F
:1005A0002F910F900FBE0F901F9018951F920F92D2
:1005B0000FB60F9211242F933F934F935F936F9336
:1005C0007F938F939F93AF93BF93EF93FF93E091AC
:1005D0000201F09103010995FF91EF91BF91AF9155
:1005E0009F918F917F916F915F914F913F912F914B
:1005F0000F900FBE0F901F9018951F920F920FB67D
:100600000F9211242F933F934F935F936F937F9398
:100610008F939F93AF93BF93EF93FF93E09100016C
:10062000F09101010995FF91EF91BF91AF919F91D9
:100630008F917F916F915F914F913F912F910F908B
:100640000FBE0F901F9018951F920F920FB60F922A
:1006500011242F933F934F935F936F937F938F93C7
:100660009F93AF93BF93EF93FF9385E291E00E9436
:10067000DD01FF91EF91BF91AF919F918F917F919C
:100680006F915F914F913F912F910F900FBE0F90FF
:100690001F9018951F920F920FB60F9211242F934F
:1006A0008F939F93EF93FF93E0913501F091360183
:1006B0008081E0913B01F0913C0182FD12C090816C
:1006C00080913E018F5F8F7320913F01821751F01F
:1006D000E0913E01F0E0EB5DFE4F958F80933E018F
:1006E00001C08081FF91EF919F918F912F910F9089
:1006F0000FBE0F901F901895CF93DF93CDB7DEB745
:10070000A1970FB6F894DEBF0FBECDBF789484B525
:10071000826084BD84B5816084BD85B5826085BDFD
:1007200085B5816085BD80916E00816080936E008B
:10073000109281008091810082608093810080917D
:10074000810081608093810080918000816080932E
:1007500080008091B10084608093B1008091B000EE
:1007600081608093B00080917A00846080937A00E9
:1007700080917A00826080937A0080917A00816013
:1007800080937A0080917A00806880937A0010923A
:10079000C10061E08AE00E94D40062E082E00E9431
:1007A000D40062E083E00E94D400E0913501F09132
:1007B000360182E08083E0913101F09132011082B4
:1007C000E0913301F09134018FEC808310923D0170
:1007D000E0913901F0913A0186E08083E0913701A0
:1007E000F0913801808180618083E0913701F09140
:1007F0003801808188608083E0913701F091380171
:10080000808180688083E0913701F0913801808198
:100810008F7D808343E050E060E871E081E00E94DA
:10082000350142E050E06EE871E080E00E94350161
:100830009AE0892E912CA12CB12CC0901A01D09055
:100840001B010D2C000CEE08FF08F7FE20C06DE226
:1008500085E291E00E94FF0122273327A9012C198C
:100860003D094E095F0919A2CE0181967C01CA019A
:10087000B901A50194010E94BD04605DF701629376
:100880007F01211531054105510589F715C0A701E3
:10089000960119A2CE0181967C01CA01B901A50178
:1008A00094010E94BD04605DF70162937F012115F0
:1008B00031054105510589F7C7010E94780242E0E0
:1008C00050E066E171E085E291E00E9456010E94ED
:1008D00010012B013C0184E6C82ED12CE12CF12C17
:1008E0000E941001DC01CB0184199509A609B70902
:1008F000883E9340A105B10598F3F1E0CF1AD108E5
:10090000E108F10828EE420E23E0521E611C711C22
:10091000C114D104E104F10419F70E946E028DCFD5
:10092000E5E2F1E01382128288EE93E0A0E0B0E00D
:1009300084839583A683B78388E091E09183808345
:1009400085EC90E09587848784EC90E09787868794
:1009500080EC90E0918B808B81EC90E0938B828B8C
:1009600082EC90E0958B848B86EC90E0978B868B65
:10097000118E128E138E148E0895A1E21A2EAA1BC8
:10098000BB1BFD010DC0AA1FBB1FEE1FFF1FA2173F
:10099000B307E407F50720F0A21BB30BE40BF50B3C
:1009A000661F771F881F991F1A9469F760957095C5
:1009B000809590959B01AC01BD01CF010895EE0F8C
:1009C000FF1F0590F491E02D099481E090E0F894E8
:0809D0000C94EA04F894FFCF37
:1009D8005501550100000000FF01560196014C0227
:0A09E800C701A501B9010D0A0000C6
:00000001FF
