:100000000C945D000C9485000C9485000C94850084
:100010000C9485000C9485000C9485000C9485004C
:100020000C9485000C9485000C9485000C9485003C
:100030000C9485000C9485000C9485000C9485002C
:100040000C9459020C9485000C94C9020C94A302E0
:100050000C9485000C9485000C9485000C9485000C
:100060000C9485000C9485000000000024002700FB
:100070002A0000000000250028002B0004040404CE
:100080000404040402020202020203030303030342
:10009000010204081020408001020408102001021F
:1000A00004081020000000080002010000030407FB
:1000B0000000000000000000700411241FBECFEFFC
:1000C000D8E0DEBFCDBF11E0A0E0B1E0E8E9F9E0A3
:1000D00002C005900D92A631B107D9F721E0A6E143
:1000E000B1E001C01D92AE3BB207E1F710E0CDE5F3
:1000F000D0E004C02197FE010E94BF04CC35D10797
:10010000C9F70E94FB020C94CA040C94000090E012
:10011000FC01EC55FF4F2491FC01E057FF4F349157
:10012000FC01E458FF4FE491EE2309F43CC0222384
:1001300039F1233091F038F42130A9F0223001F563
:1001400084B58F7D12C0273091F02830A1F0243083
:10015000B9F4809180008F7D03C0809180008F77FB
:10016000809380000DC084B58F7784BD09C08091D5
:10017000B0008F7703C08091B0008F7D8093B00076
:10018000F0E0EE0FFF1FEE58FF4FA591B4919FB71F
:10019000F894611104C08C913095382302C0EC9121
:1001A0003E2B3C939FBF0895CF93DF9390E0FC01DB
:1001B000E057FF4F2491FC01E458FF4F84918823BE
:1001C00061F190E0880F991FFC01E859FF4FC5913C
:1001D000D491FC01EE58FF4FA591B491611109C073
:1001E0009FB7F8948881209582238883EC912E23F1
:1001F0000BC0623061F49FB7F8948881322F30953C
:1002000083238883EC912E2B2C939FBF06C08FB73E
:10021000F894E8812E2B28838FBFDF91CF9108952A
:100220003FB7F89480911D0190911E01A0911F018C
:10023000B091200126B5A89B05C02F3F19F001966B
:10024000A11DB11D3FBFBA2FA92F982F8827820F5C
:10025000911DA11DB11DBC01CD0142E0660F771FAC
:10026000881F991F4A95D1F70895CF92DF92EF9298
:10027000FF920F931F93CF93DF936C017A018B0151
:10028000C0E0D0E0CE15DF0581F0D8016D918D0181
:10029000D601ED91FC910190F081E02DC601099508
:1002A000892B11F02196EECF7E01C701DF91CF910E
:1002B0001F910F91FF90EF90DF90CF9008950895D8
:1002C00080E090E00895FC01538D448D252F30E0AF
:1002D000842F90E0821B930B541710F0CF96089553
:1002E00001970895FC01918D828D981761F0828DA0
:1002F000DF01A80FB11D5D968C91928D9F5F9F735A
:10030000928F90E008958FEF9FEF0895FC01918DFB
:10031000828D981731F0828DE80FF11D858D90E068
:1003200008958FEF9FEF0895FC01918D228D892F05
:1003300090E0805C9F4F821B91098F7399270895ED
:1003400081E291E00E94940121E0892B09F420E0F0
:10035000822F0895FC01848DDF01A80FB11DA35ADF
:10036000BF4F2C91848D90E001968F739927848FD5
:10037000A689B7892C93A089B1898C9183708064F8
:100380008C93938D848D981306C00288F389E02D99
:1003900080818F7D80830895EF92FF920F931F934A
:1003A000CF93DF93EC0181E0888F9B8D8C8D981328
:1003B00005C0E889F989808185FD26C0F62E0B8D60
:1003C00010E00F5F1F4F0F731127E02E8C8DE81286
:1003D0000CC00FB607FCFACFE889F989808185FF48
:1003E000F5CFCE010E94AA01F1CF8B8DFE01E80F5F
:1003F000F11DE35AFF4FF0829FB7F8940B8FEA8903
:10040000FB89808180620AC09FB7F894EE89FF89DA
:100410006083E889F98980818370806480839FBFCD
:1004200081E090E0DF91CF911F910F91FF90EF90CD
:100430000895CF93DF93EC01888D8823C9F0EA8972
:10044000FB89808185FD05C0A889B9898C9186FDCD
:100450000FC00FB607FCF5CF808185FFF2CFA889CA
:10046000B9898C9185FFEDCFCE010E94AA01E7CF1B
:10047000DF91CF91089580E090E0892B29F00E94D0
:10048000A00181110C9400000895009769F0FC010F
:1004900001900020E9F73197AF01481B590BBC01CF
:1004A00081E291E00C94350180E090E008950E9493
:1004B000C5041F920F920FB60F9211242F933F93F2
:1004C0008F939F93AF93BF938091190190911A01DD
:1004D000A0911B01B0911C013091180123E0230F62
:1004E0002D3720F40196A11DB11D05C026E8230F6C
:1004F0000296A11DB11D20931801809319019093BC
:100500001A01A0931B01B0931C0180911D019091D1
:100510001E01A0911F01B09120010196A11DB11DE6
:1005200080931D0190931E01A0931F01B0932001A1
:10053000BF91AF919F918F913F912F910F900FBEDF
:100540000F901F9018951F920F920FB60F921124C3
:100550002F933F934F935F936F937F938F939F93CB
:10056000AF93BF93EF93FF9381E291E00E94AA01C2
:10057000FF91EF91BF91AF919F918F917F916F917B
:100580005F914F913F912F910F900FBE0F901F9051
:1005900018951F920F920FB60F9211242F938F93DD
:1005A0009F93EF93FF93E0913101F09132018081AD
:1005B000E0913701F091380182FD12C09081809165
:1005C0003A018F5F8F7320913B01821751F0E091C8
:1005D0003A01F0E0EF5DFE4F958F80933A0101C044
:1005E0008081FF91EF919F918F912F910F900FBE7E
:1005F0000F901F901895CF93DF93CDB7DEB7A197DB
:100600000FB6F894DEBF0FBECDBF789484B582607C
:1006100084BD84B5816084BD85B5826085BD85B5A6
:10062000816085BD80916E00816080936E00109224
:10063000810080918100826080938100809181009F
:100640008160809381008091800081608093800030
:100650008091B10084608093B1008091B00081608E
:100660008093B00080917A00846080937A008091BA
:100670007A00826080937A0080917A008160809312
:100680007A0080917A00806880937A001092C1008D
:1006900060E083E00E94D40061E089E00E94D40021
:1006A000E0913101F091320182E08083E0912D01EF
:1006B000F0912E011082E0912F01F09130018FEC2A
:1006C000808310923901E0913501F091360186E086
:1006D0008083E0913301F0913401808180618083D7
:1006E000E0913301F0913401808188608083E09152
:1006F0003301F0913401808180688083E09133017F
:10070000F091340180818F7D808323E4322E3AE0A2
:10071000432E512C612C712C30927C0080917A00F8
:10072000806480937A0080917A0086FDFCCF0091EE
:1007300078008091790010E0182B17FF02C00D5F40
:100740001F4F159507951595079510931701009361
:10075000160161E089E00E94D4000115110511F431
:1007600060E004C00F3F110529F461E089E00E94B8
:10077000870043C0EDEAF0E084918330F9F048F45B
:100780008130B9F08230A1F584B5806284BD08BDA6
:1007900034C08730E9F0883019F1843049F5809110
:1007A000800080628093800010938B0000938A0009
:1007B00024C084B5806884BD07BD1FC080918000BF
:1007C000806880938000109389000093880015C092
:1007D0008091B00080688093B0000093B3000DC09A
:1007E0008091B00080628093B0000093B40005C097
:1007F000003811050CF0B9CFB3CF0E9410014B01A6
:100800005C0188ECC82ED12CE12CF12C0E94100147
:10081000DC01CB0188199909AA09BB09883E9340DC
:10082000A105B10598F3F1E0CF1AD108E108F1086C
:1008300028EE820E23E0921EA11CB11CC114D1042B
:10084000E104F10419F7C0901601D09017010D2CA6
:10085000000CEE08FF08F7FE20C06DE281E291E097
:100860000E94CC0122273327A9012C193D094E09EA
:100870005F0919A28E010F5D1F4FCA01B901A301C3
:1008800092010E949D04605DF80162938F01211521
:1008900031054105510589F715C0A701960119A237
:1008A0008E010F5D1F4FCA01B901A30192010E9481
:1008B0009D04605DF80162938F01211531054105AA
:1008C000510589F7C8010E94450242E050E062E10B
:1008D00071E081E291E00E9435010E943B021CCF51
:1008E000E1E2F1E01382128288EE93E0A0E0B0E052
:1008F00084839583A683B78384E091E0918380838A
:1009000085EC90E09587848784EC90E097878687D4
:1009100080EC90E0918B808B81EC90E0938B828BCC
:1009200082EC90E0958B848B86EC90E0978B868BA5
:10093000118E128E138E148E0895A1E21A2EAA1B08
:10094000BB1BFD010DC0AA1FBB1FEE1FFF1FA2177F
:10095000B307E407F50720F0A21BB30BE40BF50B7C
:10096000661F771F881F991F1A9469F76095709505
:10097000809590959B01AC01BD01CF010895EE0FCC
:10098000FF1F0590F491E02D099481E090E0F89428
:080990000C94CA04F894FFCF97
:1009980000000000CC0135016301190294017201C5
:0609A80086010D0A0000AB
:00000001FF
