:100000000C9462000C948A000C948A000C948A0070
:100010000C948A000C948A000C948A000C948A0038
:100020000C948A000C948A000C948A000C948A0028
:100030000C948A000C948A000C948A000C948A0018
:100040000C940F020C948A000C947F020C945902B9
:100050000C948A000C948A000C948A000C948A00F8
:100060000C948A000C948A0008000000BE92244977
:10007000123EABAAAA2ABECDCCCC4C3E00000080DA
:10008000BEABAAAAAA3E00000000BF000000803F4D
:100090000000000000084178D3BB4387D1133D190D
:1000A0000E3CC3BD4282AD2B3E68EC8276BED98F3A
:1000B000E1A93E4C80EFFFBE01C4FF7F3F0000007E
:1000C0000000770411241FBECFEFD8E0DEBFCDBF04
:1000D00011E0A0E0B1E0EEE1FFE002C005900D927A
:1000E000A233B107D9F721E0A2E3B1E001C01D922C
:1000F000AC3DB207E1F710E0C2E6D0E004C02197C2
:10010000FE010E948707C136D107C9F70E94B102DC
:100110000C948D070C9400003FB7F89480913B013C
:1001200090913C01A0913D01B0913E0126B5A89B64
:1001300005C02F3F19F00196A11DB11D3FBFBA2F79
:10014000A92F982F8827BC01CD01620F711D811D39
:10015000911D42E0660F771F881F991F4A95D1F7BE
:100160000895AF92BF92CF92DF92EF92FF920F93DA
:100170001F93CF93DF936C017B018B01040F151F3D
:10018000EB015E01AE18BF08C017D10759F06991A5
:10019000D601ED91FC910190F081E02DC601099509
:1001A000892B79F7C501DF91CF911F910F91FF90B6
:1001B000EF90DF90CF90BF90AF900895FC01538DEA
:1001C000448D252F30E0842F90E0821B930B541731
:1001D00010F0CF96089501970895FC01918D828DBE
:1001E000981761F0A28DAE0FBF2FB11D5D968C9157
:1001F000928D9F5F9F73928F90E008958FEF9FEF96
:100200000895FC01918D828D981731F0828DE80F51
:10021000F11D858D90E008958FEF9FEF0895FC010B
:10022000918D228D892F90E0805C9F4F821B9109D8
:100230008F73992708958FE391E00E940F0121E0C9
:10024000892B09F420E0822F089580E090E0892B2B
:1002500029F00E941B0181110C9400000895FC01FB
:10026000A48DA80FB92FB11DA35ABF4F2C91848D17
:1002700090E001968F739927848FA689B7892C9374
:10028000A089B1898C91837080648C93938D848DC7
:10029000981306C00288F389E02D80818F7D8083CA
:1002A0000895EF92FF920F931F93CF93DF93EC018A
:1002B00081E0888F9B8D8C8D98131AC0E889F9890D
:1002C000808185FF15C09FB7F894EE89FF89608310
:1002D000E889F98980818370806480839FBF81E091
:1002E00090E0DF91CF911F910F91FF90EF900895D3
:1002F000F62E0B8D10E00F5F1F4F0F731127E02EAE
:100300008C8D8E110CC00FB607FCFACFE889F989E5
:10031000808185FFF5CFCE010E942F01F1CFEB8DBB
:10032000EC0FFD2FF11DE35AFF4FF0829FB7F894B9
:100330000B8FEA89FB8980818062CFCFCF93DF93D7
:10034000EC01888D8823B9F0AA89BB89E889F989ED
:100350008C9185FD03C0808186FD0DC00FB607FC22
:10036000F7CF8C9185FFF2CF808185FFEDCFCE0155
:100370000E942F01E9CFDF91CF910895FC010190F8
:100380000020E9F73197AF01481B590BBC018FE3FF
:1003900091E00C94B1008F929F92AF92BF920F9315
:1003A0001F93CF93DF93CDB7DEB7A1970FB6F89425
:1003B000DEBF0FBECDBF19A2423008F44AE08E0165
:1003C0000F5D1F4F842E912CB12CA12CA5019401FF
:1003D0000E946507E62FB901CA01EA30F4F4E05D36
:1003E000D801EE938D01232B242B252B79F790E058
:1003F00080E0109719F0CD010E94BE01A1960FB6C2
:10040000F894DEBF0FBECDBFDF91CF911F910F914A
:10041000BF90AF909F908F900895E95CE1CF1F92BD
:100420000F920FB60F9211242F933F938F939F93A8
:10043000AF93BF938091370190913801A09139011A
:10044000B0913A013091360123E0230F2D3758F552
:100450000196A11DB11D2093360180933701909321
:100460003801A0933901B0933A0180913B019091FA
:100470003C01A0913D01B0913E010196A11DB11D2D
:1004800080933B0190933C01A0933D01B0933E01CA
:10049000BF91AF919F918F913F912F910F900FBE80
:1004A0000F901F90189526E8230F0296A11DB11DED
:1004B000D2CF1F920F920FB60F9211242F933F931A
:1004C0004F935F936F937F938F939F93AF93BF935C
:1004D000EF93FF938FE391E00E942F01FF91EF9143
:1004E000BF91AF919F918F917F916F915F914F914C
:1004F0003F912F910F900FBE0F901F9018951F9254
:100500000F920FB60F9211242F938F939F93EF9317
:10051000FF93E0914F01F09150018081E0915501EE
:10052000F091560182FD1BC09081809158018F5F30
:100530008F7320915901821741F0E0915801F0E04A
:10054000E15CFE4F958F80935801FF91EF919F9151
:100550008F912F910F900FBE0F901F901895808153
:10056000F4CF789484B5826084BD84B5816084BD05
:1005700085B5826085BD85B5816085BD80916E0041
:10058000816080936E001092810080918100826072
:1005900080938100809181008160809381008091AF
:1005A00080008160809380008091B100846080939E
:1005B000B1008091B00081608093B00080917A009A
:1005C000846080937A0080917A00826080937A00C0
:1005D00080917A00816080937A0080917A008068AF
:1005E00080937A001092C100E0914F01F091500188
:1005F00082E08083E0914B01F0914C011082E09108
:100600004D01F0914E018FEC808310925701E091E3
:100610005301F091540186E08083E0915101F09103
:100620005201808180618083E0915101F0915201FB
:10063000808188608083E0915101F0915201808136
:1006400080688083E0915101F091520180818F7D1B
:10065000808310E4C0E0D0E010937C0080917A00A9
:10066000806480937A0080917A0086FDFCCF80912F
:10067000780060917900762F682F072E000C880B88
:10068000990B0E94B9059B01AC0160E070EC8FE70B
:1006900094E40E94160520E030E040E85FE30E9409
:1006A000A40420E030E44CE156E40E94BE060E941F
:1006B00076066B017C012CE63FEC48E554E30E9492
:1006C000BE06A70196010E94BE06A70196010E94E0
:1006D000BE064B015C0126ED34E649E759E3C7014C
:1006E000B6010E94BE062BEC38E444E85AE30E94AF
:1006F000A5049B01AC01C501B4010E94A5049B01A6
:10070000AC0160E070E080E89FE30E94160523E3FF
:1007100033E948E853E40E94A404609332017093E3
:100720003301809334019093350182E191E00E947E
:10073000BE01C0903201D0903301E0903401F090BE
:100740003501A7019601C701B6010E942B07882336
:10075000E1F180E291E00E94BE018CE291E00E9412
:10076000BE018FE291E00E94BE010E948C004B010D
:100770005C0184EFC82EDD24D394E12CF12C0E947F
:100780008C00681979098A099B09683E73408105C4
:100790009105A8F321E0C21AD108E108F10888EE1A
:1007A000880E83E0981EA11CB11CC114D104E10481
:1007B000F10429F7209709F44FCF0E941B018823E9
:1007C00009F44ACF0E94000047CF46015701E89440
:1007D000B7F82FEF3FEF4FE75FE7C501B4010E9485
:1007E0002B0781110DC02FEF3FEF4FE75FE7C501EA
:1007F000B4010E94110518161CF484E291E0ABCFFD
:100800002FEF3FEF4FE75FE4C701B6010E94690693
:1008100018161CF488E291E09ECF2FEF3FEF4FE7D0
:100820005FECC701B6010E94110587FDF3CF20E000
:1008300030E0A901C701B6010E94110587FF09C078
:100840006DE28FE391E00E945101F7FAF094F7F81E
:10085000F0942AE037ED43EA5BE3C701B6010E945A
:10086000A5044B015C010E9488056B017C010E947C
:10087000B7059B01AC01C501B4010E94A4044B0162
:100880005C014AE0C701B6010E94CB016EE28FE332
:1008900091E00E94510120E030E040E251E4C501C6
:1008A000B4010E94BE064B015C010E9488056B01E9
:1008B000F12CE12C4AE0C701B6010E94CB01C7012F
:1008C000B6010E94B7059B01AC01C501B4010E94AD
:1008D000A40420E030E040E251E40E94BE060E9401
:1008E000880590E080E04AE00E94CB0136CFEFE33C
:1008F000F1E01382128288EE93E0A0E0B0E08483FE
:100900009583A683B78384E091E09183808385EC0F
:1009100090E09587848784EC90E09787868780ECC9
:1009200090E0918B808B81EC90E0938B828B82ECBA
:1009300090E0958B848B86EC90E0978B868B118E64
:10094000128E138E148E08955058BB27AA270E942A
:10095000BC040C942F060E94210638F00E94280641
:1009600020F039F49F3F19F426F40C941E060EF47F
:10097000E095E7FB0C941806E92F0E94400658F317
:10098000BA17620773078407950720F079F4A6F574
:100990000C9462060EF4E0950B2EBA2FA02D0B01DD
:1009A000B90190010C01CA01A0011124FF27591BB4
:1009B00099F0593F50F4503E68F11A16F040A22FBA
:1009C000232F342F4427585FF3CF4695379527952B
:1009D000A795F0405395C9F77EF41F16BA0B620B2A
:1009E000730B840BBAF09150A1F0FF0FBB1F661F71
:1009F000771F881FC2F70EC0BA0F621F731F841FB4
:100A000048F4879577956795B795F7959E3F08F0D9
:100A1000B0CF9395880F08F09927EE0F979587959B
:100A200008950E94F40508F481E008950E942A05C3
:100A30000C942F060E94280658F00E94210640F0D0
:100A400029F45F3F29F00C94180651110C946306A9
:100A50000C941E060E94400668F39923B1F35523B7
:100A600091F3951B550BBB27AA27621773078407C1
:100A700038F09F5F5F4F220F331F441FAA1FA9F357
:100A800035D00E2E3AF0E0E832D091505040E69545
:100A9000001CCAF72BD0FE2F29D0660F771F881FA6
:100AA000BB1F261737074807AB07B0E809F0BB0B99
:100AB000802DBF01FF2793585F4F3AF09E3F5105AD
:100AC00078F00C9418060C9463065F3FE4F3983EAC
:100AD000D4F3869577956795B795F7959F5FC9F796
:100AE000880F911D9695879597F90895E1E0660F17
:100AF000771F881FBB1F621773078407BA0720F090
:100B0000621B730B840BBA0BEE1F88F7E0950895F8
:100B10000E94480688F09F5798F0B92F9927B7513F
:100B2000B0F0E1F0660F771F881F991F1AF0BA9591
:100B3000C9F714C0B13091F00E946206B1E0089587
:100B40000C946206672F782F8827B85F39F0B93F79
:100B5000CCF3869577956795B395D9F73EF4909544
:100B60008095709561957F4F8F4F9F4F0895E894C2
:100B700009C097FB3EF490958095709561957F4FE5
:100B80008F4F9F4F9923A9F0F92F96E9BB27939593
:100B9000F695879577956795B795F111F8CFFAF4A3
:100BA000BB0F11F460FF1BC06F5F7F4F8F4F9F4FD4
:100BB00016C0882311F096E911C0772321F09EE832
:100BC000872F762F05C0662371F096E8862F70E098
:100BD00060E02AF09A95660F771F881FDAF7880F72
:100BE0009695879597F90895990F0008550FAA0BC8
:100BF000E0E8FEEF16161706E807F907C0F0121630
:100C00001306E407F50798F0621B730B840B950B32
:100C100039F40A2661F0232B242B252B21F4089587
:100C20000A2609F4A140A6958FEF811D811D089524
:100C300097F99F6780E870E060E008959FEF80EC8F
:100C4000089500240A941616170618060906089532
:100C500000240A9412161306140605060895092E98
:100C60000394000C11F4882352F0BB0F40F4BF2B07
:100C700011F460FF04C06F5F7F4F8F4F9F4F089547
:100C800057FD9058440F551F59F05F3F71F047953D
:100C9000880F97FB991F61F09F3F79F08795089522
:100CA000121613061406551FF2CF4695F1DF08C041
:100CB000161617061806991FF1CF8695710561055E
:100CC00008940895E894BB2766277727CB0197F906
:100CD00008950E94F40508F48FEF089516F00C941F
:100CE00030070C941E0668940C9418060E9448065F
:100CF000A8F39923C1F3AEF3DF93CF931F930F9320
:100D0000FF92C92FDD2788232AF02197660F771FCE
:100D1000881FDAF720E030E040E85FEB9FE3883996
:100D200020F0803E38F021968F770E94A504E8E6F7
:100D3000F0E004C00E94A504E5E9F0E00E943E074F
:100D40008B01BE01EC01FB2E6F5771097595771F62
:100D5000880B990B0E94B90528E132E741E35FE374
:100D60000E94D106AF2D9801AE01FF900F911F9107
:100D7000CF91DF910E94BC040C942F060E94D106F3
:100D80000C942F060E94210638F00E94280620F0BD
:100D9000952311F00C9418060C941E0611240C9443
:100DA00063060E94400670F3959FC1F3950F50E0D3
:100DB000551F629FF001729FBB27F00DB11D639F0D
:100DC000AA27F00DB11DAA1F649F6627B00DA11DB3
:100DD000661F829F2227B00DA11D621F739FB00D59
:100DE000A11D621F839FA00D611D221F749F3327C9
:100DF000A00D611D231F849F600D211D822F762F62
:100E00006A2F11249F5750409AF0F1F088234AF03E
:100E1000EE0FFF1FBB1F661F771F881F91505040AA
:100E2000A9F79E3F510580F00C9418060C946306B8
:100E30005F3FE4F3983ED4F3869577956795B79531
:100E4000F795E7959F5FC1F7FE2B880F911D96954B
:100E5000879597F908950E94F405880B990B0895DA
:100E60009F3F31F0915020F4879577956795B7951E
:100E7000880F911D9695879597F90895DF93CF93E5
:100E80001F930F93FF92EF92DF927B018C01689486
:100E900006C0DA2EEF010E94D106FE01E894A5916A
:100EA0002591359145915591A6F3EF010E94BC041F
:100EB000FE019701A801DA9469F7DF90EF90FF90A7
:100EC0000F911F91CF91DF910895A1E21A2EAA1BD5
:100ED000BB1BFD010DC0AA1FBB1FEE1FFF1FA217EA
:100EE000B307E407F50720F0A21BB30BE40BF50BE7
:100EF000661F771F881F991F1A9469F76095709570
:100F0000809590959B01AC01BD01CF010895EE0F36
:0E0F1000FF1F0590F491E02D0994F894FFCF97
:100F1E00000000005101B100DE009E010F01ED0046
:100F2E00010154656D70657261747572653A2000C9
:100F3E006E616E00696E66006F7666002043000D6E
:020F4E000A0097
:00000001FF
